{
	"_format": "hh-sol-artifact-1",
	"contractName": "MyToken",
	"sourceName": "contracts/MyToken.sol",
	"abi": [
		{
			"inputs": [
				{
					"internalType": "address",
					"name": "initialOwner",
					"type": "address"
				}
			],
			"stateMutability": "nonpayable",
			"type": "constructor"
		},
		{
			"inputs": [],
			"name": "ERC721EnumerableForbiddenBatchMint",
			"type": "error"
		},
		{
			"inputs": [
				{
					"internalType": "address",
					"name": "sender",
					"type": "address"
				},
				{
					"internalType": "uint256",
					"name": "tokenId",
					"type": "uint256"
				},
				{
					"internalType": "address",
					"name": "owner",
					"type": "address"
				}
			],
			"name": "ERC721IncorrectOwner",
			"type": "error"
		},
		{
			"inputs": [
				{
					"internalType": "address",
					"name": "operator",
					"type": "address"
				},
				{
					"internalType": "uint256",
					"name": "tokenId",
					"type": "uint256"
				}
			],
			"name": "ERC721InsufficientApproval",
			"type": "error"
		},
		{
			"inputs": [
				{
					"internalType": "address",
					"name": "approver",
					"type": "address"
				}
			],
			"name": "ERC721InvalidApprover",
			"type": "error"
		},
		{
			"inputs": [
				{
					"internalType": "address",
					"name": "operator",
					"type": "address"
				}
			],
			"name": "ERC721InvalidOperator",
			"type": "error"
		},
		{
			"inputs": [
				{
					"internalType": "address",
					"name": "owner",
					"type": "address"
				}
			],
			"name": "ERC721InvalidOwner",
			"type": "error"
		},
		{
			"inputs": [
				{
					"internalType": "address",
					"name": "receiver",
					"type": "address"
				}
			],
			"name": "ERC721InvalidReceiver",
			"type": "error"
		},
		{
			"inputs": [
				{
					"internalType": "address",
					"name": "sender",
					"type": "address"
				}
			],
			"name": "ERC721InvalidSender",
			"type": "error"
		},
		{
			"inputs": [
				{
					"internalType": "uint256",
					"name": "tokenId",
					"type": "uint256"
				}
			],
			"name": "ERC721NonexistentToken",
			"type": "error"
		},
		{
			"inputs": [
				{
					"internalType": "address",
					"name": "owner",
					"type": "address"
				},
				{
					"internalType": "uint256",
					"name": "index",
					"type": "uint256"
				}
			],
			"name": "ERC721OutOfBoundsIndex",
			"type": "error"
		},
		{
			"inputs": [
				{
					"internalType": "address",
					"name": "owner",
					"type": "address"
				}
			],
			"name": "OwnableInvalidOwner",
			"type": "error"
		},
		{
			"inputs": [
				{
					"internalType": "address",
					"name": "account",
					"type": "address"
				}
			],
			"name": "OwnableUnauthorizedAccount",
			"type": "error"
		},
		{
			"anonymous": false,
			"inputs": [
				{
					"indexed": true,
					"internalType": "address",
					"name": "owner",
					"type": "address"
				},
				{
					"indexed": true,
					"internalType": "address",
					"name": "approved",
					"type": "address"
				},
				{
					"indexed": true,
					"internalType": "uint256",
					"name": "tokenId",
					"type": "uint256"
				}
			],
			"name": "Approval",
			"type": "event"
		},
		{
			"anonymous": false,
			"inputs": [
				{
					"indexed": true,
					"internalType": "address",
					"name": "owner",
					"type": "address"
				},
				{
					"indexed": true,
					"internalType": "address",
					"name": "operator",
					"type": "address"
				},
				{
					"indexed": false,
					"internalType": "bool",
					"name": "approved",
					"type": "bool"
				}
			],
			"name": "ApprovalForAll",
			"type": "event"
		},
		{
			"anonymous": false,
			"inputs": [
				{
					"indexed": true,
					"internalType": "address",
					"name": "previousOwner",
					"type": "address"
				},
				{
					"indexed": true,
					"internalType": "address",
					"name": "newOwner",
					"type": "address"
				}
			],
			"name": "OwnershipTransferred",
			"type": "event"
		},
		{
			"anonymous": false,
			"inputs": [
				{
					"indexed": true,
					"internalType": "address",
					"name": "from",
					"type": "address"
				},
				{
					"indexed": true,
					"internalType": "address",
					"name": "to",
					"type": "address"
				},
				{
					"indexed": true,
					"internalType": "uint256",
					"name": "tokenId",
					"type": "uint256"
				}
			],
			"name": "Transfer",
			"type": "event"
		},
		{
			"inputs": [
				{
					"internalType": "address",
					"name": "to",
					"type": "address"
				},
				{
					"internalType": "uint256",
					"name": "tokenId",
					"type": "uint256"
				}
			],
			"name": "approve",
			"outputs": [],
			"stateMutability": "nonpayable",
			"type": "function"
		},
		{
			"inputs": [
				{
					"internalType": "address",
					"name": "owner",
					"type": "address"
				}
			],
			"name": "balanceOf",
			"outputs": [
				{
					"internalType": "uint256",
					"name": "",
					"type": "uint256"
				}
			],
			"stateMutability": "view",
			"type": "function"
		},
		{
			"inputs": [
				{
					"internalType": "uint256",
					"name": "tokenId",
					"type": "uint256"
				}
			],
			"name": "buyNFT",
			"outputs": [],
			"stateMutability": "payable",
			"type": "function"
		},
		{
			"inputs": [],
			"name": "getAllListedNFTs",
			"outputs": [
				{
					"internalType": "uint256[]",
					"name": "",
					"type": "uint256[]"
				},
				{
					"internalType": "uint256[]",
					"name": "",
					"type": "uint256[]"
				}
			],
			"stateMutability": "view",
			"type": "function"
		},
		{
			"inputs": [
				{
					"internalType": "uint256",
					"name": "tokenId",
					"type": "uint256"
				}
			],
			"name": "getApproved",
			"outputs": [
				{
					"internalType": "address",
					"name": "",
					"type": "address"
				}
			],
			"stateMutability": "view",
			"type": "function"
		},
		{
			"inputs": [
				{
					"internalType": "address",
					"name": "user",
					"type": "address"
				}
			],
			"name": "getMyCollection",
			"outputs": [
				{
					"internalType": "uint256[]",
					"name": "",
					"type": "uint256[]"
				}
			],
			"stateMutability": "view",
			"type": "function"
		},
		{
			"inputs": [
				{
					"internalType": "uint256",
					"name": "tokenId",
					"type": "uint256"
				}
			],
			"name": "getTokenPrice",
			"outputs": [
				{
					"internalType": "uint256",
					"name": "",
					"type": "uint256"
				}
			],
			"stateMutability": "view",
			"type": "function"
		},
		{
			"inputs": [
				{
					"internalType": "address",
					"name": "owner",
					"type": "address"
				},
				{
					"internalType": "address",
					"name": "operator",
					"type": "address"
				}
			],
			"name": "isApprovedForAll",
			"outputs": [
				{
					"internalType": "bool",
					"name": "",
					"type": "bool"
				}
			],
			"stateMutability": "view",
			"type": "function"
		},
		{
			"inputs": [
				{
					"internalType": "uint256",
					"name": "tokenId",
					"type": "uint256"
				},
				{
					"internalType": "uint256",
					"name": "price",
					"type": "uint256"
				}
			],
			"name": "listNFT",
			"outputs": [],
			"stateMutability": "nonpayable",
			"type": "function"
		},
		{
			"inputs": [],
			"name": "name",
			"outputs": [
				{
					"internalType": "string",
					"name": "",
					"type": "string"
				}
			],
			"stateMutability": "view",
			"type": "function"
		},
		{
			"inputs": [],
			"name": "owner",
			"outputs": [
				{
					"internalType": "address",
					"name": "",
					"type": "address"
				}
			],
			"stateMutability": "view",
			"type": "function"
		},
		{
			"inputs": [
				{
					"internalType": "uint256",
					"name": "tokenId",
					"type": "uint256"
				}
			],
			"name": "ownerOf",
			"outputs": [
				{
					"internalType": "address",
					"name": "",
					"type": "address"
				}
			],
			"stateMutability": "view",
			"type": "function"
		},
		{
			"inputs": [],
			"name": "renounceOwnership",
			"outputs": [],
			"stateMutability": "nonpayable",
			"type": "function"
		},
		{
			"inputs": [
				{
					"internalType": "address",
					"name": "to",
					"type": "address"
				}
			],
			"name": "safeMint",
			"outputs": [],
			"stateMutability": "payable",
			"type": "function"
		},
		{
			"inputs": [
				{
					"internalType": "address",
					"name": "from",
					"type": "address"
				},
				{
					"internalType": "address",
					"name": "to",
					"type": "address"
				},
				{
					"internalType": "uint256",
					"name": "tokenId",
					"type": "uint256"
				}
			],
			"name": "safeTransferFrom",
			"outputs": [],
			"stateMutability": "nonpayable",
			"type": "function"
		},
		{
			"inputs": [
				{
					"internalType": "address",
					"name": "from",
					"type": "address"
				},
				{
					"internalType": "address",
					"name": "to",
					"type": "address"
				},
				{
					"internalType": "uint256",
					"name": "tokenId",
					"type": "uint256"
				},
				{
					"internalType": "bytes",
					"name": "data",
					"type": "bytes"
				}
			],
			"name": "safeTransferFrom",
			"outputs": [],
			"stateMutability": "nonpayable",
			"type": "function"
		},
		{
			"inputs": [
				{
					"internalType": "address",
					"name": "operator",
					"type": "address"
				},
				{
					"internalType": "bool",
					"name": "approved",
					"type": "bool"
				}
			],
			"name": "setApprovalForAll",
			"outputs": [],
			"stateMutability": "nonpayable",
			"type": "function"
		},
		{
			"inputs": [
				{
					"internalType": "bytes4",
					"name": "interfaceId",
					"type": "bytes4"
				}
			],
			"name": "supportsInterface",
			"outputs": [
				{
					"internalType": "bool",
					"name": "",
					"type": "bool"
				}
			],
			"stateMutability": "view",
			"type": "function"
		},
		{
			"inputs": [],
			"name": "symbol",
			"outputs": [
				{
					"internalType": "string",
					"name": "",
					"type": "string"
				}
			],
			"stateMutability": "view",
			"type": "function"
		},
		{
			"inputs": [
				{
					"internalType": "uint256",
					"name": "index",
					"type": "uint256"
				}
			],
			"name": "tokenByIndex",
			"outputs": [
				{
					"internalType": "uint256",
					"name": "",
					"type": "uint256"
				}
			],
			"stateMutability": "view",
			"type": "function"
		},
		{
			"inputs": [
				{
					"internalType": "address",
					"name": "owner",
					"type": "address"
				},
				{
					"internalType": "uint256",
					"name": "index",
					"type": "uint256"
				}
			],
			"name": "tokenOfOwnerByIndex",
			"outputs": [
				{
					"internalType": "uint256",
					"name": "",
					"type": "uint256"
				}
			],
			"stateMutability": "view",
			"type": "function"
		},
		{
			"inputs": [
				{
					"internalType": "uint256",
					"name": "tokenId",
					"type": "uint256"
				}
			],
			"name": "tokenURI",
			"outputs": [
				{
					"internalType": "string",
					"name": "",
					"type": "string"
				}
			],
			"stateMutability": "view",
			"type": "function"
		},
		{
			"inputs": [],
			"name": "totalSupply",
			"outputs": [
				{
					"internalType": "uint256",
					"name": "",
					"type": "uint256"
				}
			],
			"stateMutability": "view",
			"type": "function"
		},
		{
			"inputs": [
				{
					"internalType": "address",
					"name": "from",
					"type": "address"
				},
				{
					"internalType": "address",
					"name": "to",
					"type": "address"
				},
				{
					"internalType": "uint256",
					"name": "tokenId",
					"type": "uint256"
				}
			],
			"name": "transferFrom",
			"outputs": [],
			"stateMutability": "nonpayable",
			"type": "function"
		},
		{
			"inputs": [
				{
					"internalType": "address",
					"name": "newOwner",
					"type": "address"
				}
			],
			"name": "transferOwnership",
			"outputs": [],
			"stateMutability": "nonpayable",
			"type": "function"
		}
	],
	"bytecode": "0x60806040523480156200001157600080fd5b5060405162003c5538038062003c55833981810160405281019062000037919062000288565b806040518060400160405280600781526020017f4d79546f6b656e000000000000000000000000000000000000000000000000008152506040518060400160405280600381526020017f4d544b00000000000000000000000000000000000000000000000000000000008152508160009081620000b5919062000534565b508060019081620000c7919062000534565b505050600073ffffffffffffffffffffffffffffffffffffffff168173ffffffffffffffffffffffffffffffffffffffff16036200013f5760006040517f1e4fbdf70000000000000000000000000000000000000000000000000000000081526004016200013691906200062c565b60405180910390fd5b62000150816200015860201b60201c565b505062000649565b6000600a60009054906101000a900473ffffffffffffffffffffffffffffffffffffffff16905081600a60006101000a81548173ffffffffffffffffffffffffffffffffffffffff021916908373ffffffffffffffffffffffffffffffffffffffff1602179055508173ffffffffffffffffffffffffffffffffffffffff168173ffffffffffffffffffffffffffffffffffffffff167f8be0079c531659141344cd1fd0a4f28419497f9722a3daafe3b4186f6b6457e060405160405180910390a35050565b600080fd5b600073ffffffffffffffffffffffffffffffffffffffff82169050919050565b6000620002508262000223565b9050919050565b620002628162000243565b81146200026e57600080fd5b50565b600081519050620002828162000257565b92915050565b600060208284031215620002a157620002a06200021e565b5b6000620002b18482850162000271565b91505092915050565b600081519050919050565b7f4e487b7100000000000000000000000000000000000000000000000000000000600052604160045260246000fd5b7f4e487b7100000000000000000000000000000000000000000000000000000000600052602260045260246000fd5b600060028204905060018216806200033c57607f821691505b602082108103620003525762000351620002f4565b5b50919050565b60008190508160005260206000209050919050565b60006020601f8301049050919050565b600082821b905092915050565b600060088302620003bc7fffffffffffffffffffffffffffffffffffffffffffffffffffffffffffffffff826200037d565b620003c886836200037d565b95508019841693508086168417925050509392505050565b6000819050919050565b6000819050919050565b6000620004156200040f6200040984620003e0565b620003ea565b620003e0565b9050919050565b6000819050919050565b6200043183620003f4565b6200044962000440826200041c565b8484546200038a565b825550505050565b600090565b6200046062000451565b6200046d81848462000426565b505050565b5b8181101562000495576200048960008262000456565b60018101905062000473565b5050565b601f821115620004e457620004ae8162000358565b620004b9846200036d565b81016020851015620004c9578190505b620004e1620004d8856200036d565b83018262000472565b50505b505050565b600082821c905092915050565b60006200050960001984600802620004e9565b1980831691505092915050565b6000620005248383620004f6565b9150826002028217905092915050565b6200053f82620002ba565b67ffffffffffffffff8111156200055b576200055a620002c5565b5b62000567825462000323565b6200057482828562000499565b600060209050601f831160018114620005ac576000841562000597578287015190505b620005a3858262000516565b86555062000613565b601f198416620005bc8662000358565b60005b82811015620005e657848901518255600182019150602085019450602081019050620005bf565b8683101562000606578489015162000602601f891682620004f6565b8355505b6001600288020188555050505b505050505050565b620006268162000243565b82525050565b60006020820190506200064360008301846200061b565b92915050565b6135fc80620006596000396000f3fe6080604052600436106101665760003560e01c80636352211e116100d1578063a22cb4651161008a578063c457fb3711610064578063c457fb3714610533578063c87b56dd14610570578063e985e9c5146105ad578063f2fde38b146105ea57610166565b8063a22cb465146104a4578063b88d4fde146104cd578063bd7a2017146104f657610166565b80636352211e1461039457806370a08231146103d1578063715018a61461040e5780638da5cb5b1461042557806394383f141461045057806395d89b411461047957610166565b80632f745c59116101235780632f745c591461028d57806340d097c3146102ca57806342842e0e146102e65780634b58ffaa1461030f5780634f6ccce71461033b57806351ed82881461037857610166565b806301ffc9a71461016b57806306fdde03146101a8578063081812fc146101d3578063095ea7b31461021057806318160ddd1461023957806323b872dd14610264575b600080fd5b34801561017757600080fd5b50610192600480360381019061018d91906129c4565b610613565b60405161019f9190612a0c565b60405180910390f35b3480156101b457600080fd5b506101bd610625565b6040516101ca9190612ab7565b60405180910390f35b3480156101df57600080fd5b506101fa60048036038101906101f59190612b0f565b6106b7565b6040516102079190612b7d565b60405180910390f35b34801561021c57600080fd5b5061023760048036038101906102329190612bc4565b6106d3565b005b34801561024557600080fd5b5061024e6106e9565b60405161025b9190612c13565b60405180910390f35b34801561027057600080fd5b5061028b60048036038101906102869190612c2e565b6106f6565b005b34801561029957600080fd5b506102b460048036038101906102af9190612bc4565b6107f8565b6040516102c19190612c13565b60405180910390f35b6102e460048036038101906102df9190612c81565b6108a1565b005b3480156102f257600080fd5b5061030d60048036038101906103089190612c2e565b6109b8565b005b34801561031b57600080fd5b506103246109d8565b604051610332929190612d6c565b60405180910390f35b34801561034757600080fd5b50610362600480360381019061035d9190612b0f565b610c5e565b60405161036f9190612c13565b60405180910390f35b610392600480360381019061038d9190612b0f565b610cd4565b005b3480156103a057600080fd5b506103bb60048036038101906103b69190612b0f565b610db9565b6040516103c89190612b7d565b60405180910390f35b3480156103dd57600080fd5b506103f860048036038101906103f39190612c81565b610dcb565b6040516104059190612c13565b60405180910390f35b34801561041a57600080fd5b50610423610e85565b005b34801561043157600080fd5b5061043a610e99565b6040516104479190612b7d565b60405180910390f35b34801561045c57600080fd5b5061047760048036038101906104729190612da3565b610ec3565b005b34801561048557600080fd5b5061048e610fb1565b60405161049b9190612ab7565b60405180910390f35b3480156104b057600080fd5b506104cb60048036038101906104c69190612e0f565b611043565b005b3480156104d957600080fd5b506104f460048036038101906104ef9190612f84565b611059565b005b34801561050257600080fd5b5061051d60048036038101906105189190612c81565b61107e565b60405161052a9190613007565b60405180910390f35b34801561053f57600080fd5b5061055a60048036038101906105559190612b0f565b611217565b6040516105679190612c13565b60405180910390f35b34801561057c57600080fd5b5061059760048036038101906105929190612b0f565b611234565b6040516105a49190612ab7565b60405180910390f35b3480156105b957600080fd5b506105d460048036038101906105cf9190613029565b61129d565b6040516105e19190612a0c565b60405180910390f35b3480156105f657600080fd5b50610611600480360381019061060c9190612c81565b611331565b005b600061061e826113b7565b9050919050565b60606000805461063490613098565b80601f016020809104026020016040519081016040528092919081815260200182805461066090613098565b80156106ad5780601f10610682576101008083540402835291602001916106ad565b820191906000526020600020905b81548152906001019060200180831161069057829003601f168201915b5050505050905090565b60006106c282611431565b506106cc826114b9565b9050919050565b6106e582826106e06114f6565b6114fe565b5050565b6000600880549050905090565b600073ffffffffffffffffffffffffffffffffffffffff168273ffffffffffffffffffffffffffffffffffffffff16036107685760006040517f64a0ae9200000000000000000000000000000000000000000000000000000000815260040161075f9190612b7d565b60405180910390fd5b600061077c83836107776114f6565b611510565b90508373ffffffffffffffffffffffffffffffffffffffff168173ffffffffffffffffffffffffffffffffffffffff16146107f2578382826040517f64283d7b0000000000000000000000000000000000000000000000000000000081526004016107e9939291906130c9565b60405180910390fd5b50505050565b600061080383610dcb565b82106108485782826040517fa57d13dc00000000000000000000000000000000000000000000000000000000815260040161083f929190613100565b60405180910390fd5b600660008473ffffffffffffffffffffffffffffffffffffffff1673ffffffffffffffffffffffffffffffffffffffff168152602001908152602001600020600083815260200190815260200160002054905092915050565b6509184e72a00034146108e9576040517f08c379a00000000000000000000000000000000000000000000000000000000081526004016108e09061319b565b60405180910390fd5b6000600b60008154809291906108fe906131ea565b91905055905061090e8282611526565b81600d600083815260200190815260200160002060006101000a81548173ffffffffffffffffffffffffffffffffffffffff021916908373ffffffffffffffffffffffffffffffffffffffff160217905550610968610e99565b73ffffffffffffffffffffffffffffffffffffffff166108fc6509184e72a0009081150290604051600060405180830381858888f193505050501580156109b3573d6000803e3d6000fd5b505050565b6109d383838360405180602001604052806000815250611059565b505050565b60608060006109e56106e9565b905060008167ffffffffffffffff811115610a0357610a02612e59565b5b604051908082528060200260200182016040528015610a315781602001602082028036833780820191505090505b50905060008267ffffffffffffffff811115610a5057610a4f612e59565b5b604051908082528060200260200182016040528015610a7e5781602001602082028036833780820191505090505b5090506000805b84811015610b26576000610a9882610c5e565b90506000600c6000838152602001908152602001600020541115610b185780858481518110610aca57610ac9613232565b5b602002602001018181525050600c600082815260200190815260200160002054848481518110610afd57610afc613232565b5b6020026020010181815250508280610b14906131ea565b9350505b508080600101915050610a85565b5060008167ffffffffffffffff811115610b4357610b42612e59565b5b604051908082528060200260200182016040528015610b715781602001602082028036833780820191505090505b50905060008267ffffffffffffffff811115610b9057610b8f612e59565b5b604051908082528060200260200182016040528015610bbe5781602001602082028036833780820191505090505b50905060005b83811015610c4d57858181518110610bdf57610bde613232565b5b6020026020010151838281518110610bfa57610bf9613232565b5b602002602001018181525050848181518110610c1957610c18613232565b5b6020026020010151828281518110610c3457610c33613232565b5b6020026020010181815250508080600101915050610bc4565b508181975097505050505050509091565b6000610c686106e9565b8210610cae576000826040517fa57d13dc000000000000000000000000000000000000000000000000000000008152600401610ca5929190613100565b60405180910390fd5b60088281548110610cc257610cc1613232565b5b90600052602060002001549050919050565b6000600c60008381526020019081526020016000205490506000610cf783610db9565b9050813414610d3b576040517f08c379a0000000000000000000000000000000000000000000000000000000008152600401610d32906132ad565b60405180910390fd5b610d5681338560405180602001604052806000815250611544565b8073ffffffffffffffffffffffffffffffffffffffff166108fc839081150290604051600060405180830381858888f19350505050158015610d9c573d6000803e3d6000fd5b50600c600084815260200190815260200160002060009055505050565b6000610dc482611431565b9050919050565b60008073ffffffffffffffffffffffffffffffffffffffff168273ffffffffffffffffffffffffffffffffffffffff1603610e3e5760006040517f89c62b64000000000000000000000000000000000000000000000000000000008152600401610e359190612b7d565b60405180910390fd5b600360008373ffffffffffffffffffffffffffffffffffffffff1673ffffffffffffffffffffffffffffffffffffffff168152602001908152602001600020549050919050565b610e8d611569565b610e9760006115f0565b565b6000600a60009054906101000a900473ffffffffffffffffffffffffffffffffffffffff16905090565b3373ffffffffffffffffffffffffffffffffffffffff16610ee383610db9565b73ffffffffffffffffffffffffffffffffffffffff1614610f39576040517f08c379a0000000000000000000000000000000000000000000000000000000008152600401610f309061333f565b60405180910390fd5b655af3107a40008110158015610f565750670de0b6b3a764000081105b610f95576040517f08c379a0000000000000000000000000000000000000000000000000000000008152600401610f8c906133d1565b60405180910390fd5b80600c6000848152602001908152602001600020819055505050565b606060018054610fc090613098565b80601f0160208091040260200160405190810160405280929190818152602001828054610fec90613098565b80156110395780601f1061100e57610100808354040283529160200191611039565b820191906000526020600020905b81548152906001019060200180831161101c57829003601f168201915b5050505050905090565b61105561104e6114f6565b83836116b6565b5050565b6110648484846106f6565b61107861106f6114f6565b85858585611825565b50505050565b6060600061108a6106e9565b905060008167ffffffffffffffff8111156110a8576110a7612e59565b5b6040519080825280602002602001820160405280156110d65781602001602082028036833780820191505090505b5090506000805b8381101561116a5760006110f082610c5e565b90508673ffffffffffffffffffffffffffffffffffffffff1661111282610db9565b73ffffffffffffffffffffffffffffffffffffffff160361115c578084848151811061114157611140613232565b5b6020026020010181815250508280611158906131ea565b9350505b5080806001019150506110dd565b5060008167ffffffffffffffff81111561118757611186612e59565b5b6040519080825280602002602001820160405280156111b55781602001602082028036833780820191505090505b50905060005b8281101561120a578381815181106111d6576111d5613232565b5b60200260200101518282815181106111f1576111f0613232565b5b60200260200101818152505080806001019150506111bb565b5080945050505050919050565b6000600c6000838152602001908152602001600020549050919050565b606061123f82611431565b50600061124a6119d6565b9050600081511161126a5760405180602001604052806000815250611295565b8061127484611a13565b60405160200161128592919061342d565b6040516020818303038152906040525b915050919050565b6000600560008473ffffffffffffffffffffffffffffffffffffffff1673ffffffffffffffffffffffffffffffffffffffff16815260200190815260200160002060008373ffffffffffffffffffffffffffffffffffffffff1673ffffffffffffffffffffffffffffffffffffffff16815260200190815260200160002060009054906101000a900460ff16905092915050565b611339611569565b600073ffffffffffffffffffffffffffffffffffffffff168173ffffffffffffffffffffffffffffffffffffffff16036113ab5760006040517f1e4fbdf70000000000000000000000000000000000000000000000000000000081526004016113a29190612b7d565b60405180910390fd5b6113b4816115f0565b50565b60007f780e9d63000000000000000000000000000000000000000000000000000000007bffffffffffffffffffffffffffffffffffffffffffffffffffffffff1916827bffffffffffffffffffffffffffffffffffffffffffffffffffffffff1916148061142a575061142982611ae1565b5b9050919050565b60008061143d83611bc3565b9050600073ffffffffffffffffffffffffffffffffffffffff168173ffffffffffffffffffffffffffffffffffffffff16036114b057826040517f7e2732890000000000000000000000000000000000000000000000000000000081526004016114a79190612c13565b60405180910390fd5b80915050919050565b60006004600083815260200190815260200160002060009054906101000a900473ffffffffffffffffffffffffffffffffffffffff169050919050565b600033905090565b61150b8383836001611c00565b505050565b600061151d848484611dc5565b90509392505050565b611540828260405180602001604052806000815250611ee2565b5050565b61154f848484611f06565b61156361155a6114f6565b85858585611825565b50505050565b6115716114f6565b73ffffffffffffffffffffffffffffffffffffffff1661158f610e99565b73ffffffffffffffffffffffffffffffffffffffff16146115ee576115b26114f6565b6040517f118cdaa70000000000000000000000000000000000000000000000000000000081526004016115e59190612b7d565b60405180910390fd5b565b6000600a60009054906101000a900473ffffffffffffffffffffffffffffffffffffffff16905081600a60006101000a81548173ffffffffffffffffffffffffffffffffffffffff021916908373ffffffffffffffffffffffffffffffffffffffff1602179055508173ffffffffffffffffffffffffffffffffffffffff168173ffffffffffffffffffffffffffffffffffffffff167f8be0079c531659141344cd1fd0a4f28419497f9722a3daafe3b4186f6b6457e060405160405180910390a35050565b600073ffffffffffffffffffffffffffffffffffffffff168273ffffffffffffffffffffffffffffffffffffffff160361172757816040517f5b08ba1800000000000000000000000000000000000000000000000000000000815260040161171e9190612b7d565b60405180910390fd5b80600560008573ffffffffffffffffffffffffffffffffffffffff1673ffffffffffffffffffffffffffffffffffffffff16815260200190815260200160002060008473ffffffffffffffffffffffffffffffffffffffff1673ffffffffffffffffffffffffffffffffffffffff16815260200190815260200160002060006101000a81548160ff0219169083151502179055508173ffffffffffffffffffffffffffffffffffffffff168373ffffffffffffffffffffffffffffffffffffffff167f17307eab39ab6107e8899845ad3d59bd9653f200f220920489ca2b5937696c31836040516118189190612a0c565b60405180910390a3505050565b60008373ffffffffffffffffffffffffffffffffffffffff163b11156119cf578273ffffffffffffffffffffffffffffffffffffffff1663150b7a02868685856040518563ffffffff1660e01b815260040161188494939291906134a6565b6020604051808303816000875af19250505080156118c057506040513d601f19601f820116820180604052508101906118bd9190613507565b60015b611944573d80600081146118f0576040519150601f19603f3d011682016040523d82523d6000602084013e6118f5565b606091505b50600081510361193c57836040517f64a0ae920000000000000000000000000000000000000000000000000000000081526004016119339190612b7d565b60405180910390fd5b805181602001fd5b63150b7a0260e01b7bffffffffffffffffffffffffffffffffffffffffffffffffffffffff1916817bffffffffffffffffffffffffffffffffffffffffffffffffffffffff1916146119cd57836040517f64a0ae920000000000000000000000000000000000000000000000000000000081526004016119c49190612b7d565b60405180910390fd5b505b5050505050565b60606040518060400160405280601381526020017f68747470733a2f2f6d7961706c692e636f6d2f00000000000000000000000000815250905090565b606060006001611a2284612073565b01905060008167ffffffffffffffff811115611a4157611a40612e59565b5b6040519080825280601f01601f191660200182016040528015611a735781602001600182028036833780820191505090505b509050600082602001820190505b600115611ad6578080600190039150507f3031323334353637383961626364656600000000000000000000000000000000600a86061a8153600a8581611aca57611ac9613534565b5b04945060008503611a81575b819350505050919050565b60007f80ac58cd000000000000000000000000000000000000000000000000000000007bffffffffffffffffffffffffffffffffffffffffffffffffffffffff1916827bffffffffffffffffffffffffffffffffffffffffffffffffffffffff19161480611bac57507f5b5e139f000000000000000000000000000000000000000000000000000000007bffffffffffffffffffffffffffffffffffffffffffffffffffffffff1916827bffffffffffffffffffffffffffffffffffffffffffffffffffffffff1916145b80611bbc5750611bbb826121c6565b5b9050919050565b60006002600083815260200190815260200160002060009054906101000a900473ffffffffffffffffffffffffffffffffffffffff169050919050565b8080611c395750600073ffffffffffffffffffffffffffffffffffffffff168273ffffffffffffffffffffffffffffffffffffffff1614155b15611d6d576000611c4984611431565b9050600073ffffffffffffffffffffffffffffffffffffffff168373ffffffffffffffffffffffffffffffffffffffff1614158015611cb457508273ffffffffffffffffffffffffffffffffffffffff168173ffffffffffffffffffffffffffffffffffffffff1614155b8015611cc75750611cc5818461129d565b155b15611d0957826040517fa9fbf51f000000000000000000000000000000000000000000000000000000008152600401611d009190612b7d565b60405180910390fd5b8115611d6b57838573ffffffffffffffffffffffffffffffffffffffff168273ffffffffffffffffffffffffffffffffffffffff167f8c5be1e5ebec7d5bd14f71427d1e84f3dd0314c0f7b2291e5b200ac8c7c3b92560405160405180910390a45b505b836004600085815260200190815260200160002060006101000a81548173ffffffffffffffffffffffffffffffffffffffff021916908373ffffffffffffffffffffffffffffffffffffffff16021790555050505050565b600080611dd3858585612230565b9050600073ffffffffffffffffffffffffffffffffffffffff168173ffffffffffffffffffffffffffffffffffffffff1603611e1757611e128461244a565b611e56565b8473ffffffffffffffffffffffffffffffffffffffff168173ffffffffffffffffffffffffffffffffffffffff1614611e5557611e548185612493565b5b5b600073ffffffffffffffffffffffffffffffffffffffff168573ffffffffffffffffffffffffffffffffffffffff1603611e9857611e938461257e565b611ed7565b8473ffffffffffffffffffffffffffffffffffffffff168173ffffffffffffffffffffffffffffffffffffffff1614611ed657611ed5858561264f565b5b5b809150509392505050565b611eec83836126da565b611f01611ef76114f6565b6000858585611825565b505050565b600073ffffffffffffffffffffffffffffffffffffffff168273ffffffffffffffffffffffffffffffffffffffff1603611f785760006040517f64a0ae92000000000000000000000000000000000000000000000000000000008152600401611f6f9190612b7d565b60405180910390fd5b6000611f8683836000611510565b9050600073ffffffffffffffffffffffffffffffffffffffff168173ffffffffffffffffffffffffffffffffffffffff1603611ff957816040517f7e273289000000000000000000000000000000000000000000000000000000008152600401611ff09190612c13565b60405180910390fd5b8373ffffffffffffffffffffffffffffffffffffffff168173ffffffffffffffffffffffffffffffffffffffff161461206d578382826040517f64283d7b000000000000000000000000000000000000000000000000000000008152600401612064939291906130c9565b60405180910390fd5b50505050565b600080600090507a184f03e93ff9f4daa797ed6e38ed64bf6a1f01000000000000000083106120d1577a184f03e93ff9f4daa797ed6e38ed64bf6a1f01000000000000000083816120c7576120c6613534565b5b0492506040810190505b6d04ee2d6d415b85acef8100000000831061210e576d04ee2d6d415b85acef8100000000838161210457612103613534565b5b0492506020810190505b662386f26fc10000831061213d57662386f26fc10000838161213357612132613534565b5b0492506010810190505b6305f5e1008310612166576305f5e100838161215c5761215b613534565b5b0492506008810190505b612710831061218b57612710838161218157612180613534565b5b0492506004810190505b606483106121ae57606483816121a4576121a3613534565b5b0492506002810190505b600a83106121bd576001810190505b80915050919050565b60007f01ffc9a7000000000000000000000000000000000000000000000000000000007bffffffffffffffffffffffffffffffffffffffffffffffffffffffff1916827bffffffffffffffffffffffffffffffffffffffffffffffffffffffff1916149050919050565b60008061223c84611bc3565b9050600073ffffffffffffffffffffffffffffffffffffffff168373ffffffffffffffffffffffffffffffffffffffff161461227e5761227d8184866127d3565b5b600073ffffffffffffffffffffffffffffffffffffffff168173ffffffffffffffffffffffffffffffffffffffff161461230f576122c0600085600080611c00565b6001600360008373ffffffffffffffffffffffffffffffffffffffff1673ffffffffffffffffffffffffffffffffffffffff168152602001908152602001600020600082825403925050819055505b600073ffffffffffffffffffffffffffffffffffffffff168573ffffffffffffffffffffffffffffffffffffffff1614612392576001600360008773ffffffffffffffffffffffffffffffffffffffff1673ffffffffffffffffffffffffffffffffffffffff168152602001908152602001600020600082825401925050819055505b846002600086815260200190815260200160002060006101000a81548173ffffffffffffffffffffffffffffffffffffffff021916908373ffffffffffffffffffffffffffffffffffffffff160217905550838573ffffffffffffffffffffffffffffffffffffffff168273ffffffffffffffffffffffffffffffffffffffff167fddf252ad1be2c89b69c2b068fc378daa952ba7f163c4a11628f55a4df523b3ef60405160405180910390a4809150509392505050565b6008805490506009600083815260200190815260200160002081905550600881908060018154018082558091505060019003906000526020600020016000909190919091505550565b600061249e83610dcb565b90506000600760008481526020019081526020016000205490506000600660008673ffffffffffffffffffffffffffffffffffffffff1673ffffffffffffffffffffffffffffffffffffffff168152602001908152602001600020905082821461254a5760008160008581526020019081526020016000205490508082600085815260200190815260200160002081905550826007600083815260200190815260200160002081905550505b6007600085815260200190815260200160002060009055806000848152602001908152602001600020600090555050505050565b600060016008805490506125929190613563565b90506000600960008481526020019081526020016000205490506000600883815481106125c2576125c1613232565b5b9060005260206000200154905080600883815481106125e4576125e3613232565b5b90600052602060002001819055508160096000838152602001908152602001600020819055506009600085815260200190815260200160002060009055600880548061263357612632613597565b5b6001900381819060005260206000200160009055905550505050565b6000600161265c84610dcb565b6126669190613563565b905081600660008573ffffffffffffffffffffffffffffffffffffffff1673ffffffffffffffffffffffffffffffffffffffff168152602001908152602001600020600083815260200190815260200160002081905550806007600084815260200190815260200160002081905550505050565b600073ffffffffffffffffffffffffffffffffffffffff168273ffffffffffffffffffffffffffffffffffffffff160361274c5760006040517f64a0ae920000000000000000000000000000000000000000000000000000000081526004016127439190612b7d565b60405180910390fd5b600061275a83836000611510565b9050600073ffffffffffffffffffffffffffffffffffffffff168173ffffffffffffffffffffffffffffffffffffffff16146127ce5760006040517f73c6ac6e0000000000000000000000000000000000000000000000000000000081526004016127c59190612b7d565b60405180910390fd5b505050565b6127de838383612897565b61289257600073ffffffffffffffffffffffffffffffffffffffff168373ffffffffffffffffffffffffffffffffffffffff160361285357806040517f7e27328900000000000000000000000000000000000000000000000000000000815260040161284a9190612c13565b60405180910390fd5b81816040517f177e802f000000000000000000000000000000000000000000000000000000008152600401612889929190613100565b60405180910390fd5b505050565b60008073ffffffffffffffffffffffffffffffffffffffff168373ffffffffffffffffffffffffffffffffffffffff161415801561294f57508273ffffffffffffffffffffffffffffffffffffffff168473ffffffffffffffffffffffffffffffffffffffff161480612910575061290f848461129d565b5b8061294e57508273ffffffffffffffffffffffffffffffffffffffff16612936836114b9565b73ffffffffffffffffffffffffffffffffffffffff16145b5b90509392505050565b6000604051905090565b600080fd5b600080fd5b60007fffffffff0000000000000000000000000000000000000000000000000000000082169050919050565b6129a18161296c565b81146129ac57600080fd5b50565b6000813590506129be81612998565b92915050565b6000602082840312156129da576129d9612962565b5b60006129e8848285016129af565b91505092915050565b60008115159050919050565b612a06816129f1565b82525050565b6000602082019050612a2160008301846129fd565b92915050565b600081519050919050565b600082825260208201905092915050565b60005b83811015612a61578082015181840152602081019050612a46565b60008484015250505050565b6000601f19601f8301169050919050565b6000612a8982612a27565b612a938185612a32565b9350612aa3818560208601612a43565b612aac81612a6d565b840191505092915050565b60006020820190508181036000830152612ad18184612a7e565b905092915050565b6000819050919050565b612aec81612ad9565b8114612af757600080fd5b50565b600081359050612b0981612ae3565b92915050565b600060208284031215612b2557612b24612962565b5b6000612b3384828501612afa565b91505092915050565b600073ffffffffffffffffffffffffffffffffffffffff82169050919050565b6000612b6782612b3c565b9050919050565b612b7781612b5c565b82525050565b6000602082019050612b926000830184612b6e565b92915050565b612ba181612b5c565b8114612bac57600080fd5b50565b600081359050612bbe81612b98565b92915050565b60008060408385031215612bdb57612bda612962565b5b6000612be985828601612baf565b9250506020612bfa85828601612afa565b9150509250929050565b612c0d81612ad9565b82525050565b6000602082019050612c286000830184612c04565b92915050565b600080600060608486031215612c4757612c46612962565b5b6000612c5586828701612baf565b9350506020612c6686828701612baf565b9250506040612c7786828701612afa565b9150509250925092565b600060208284031215612c9757612c96612962565b5b6000612ca584828501612baf565b91505092915050565b600081519050919050565b600082825260208201905092915050565b6000819050602082019050919050565b612ce381612ad9565b82525050565b6000612cf58383612cda565b60208301905092915050565b6000602082019050919050565b6000612d1982612cae565b612d238185612cb9565b9350612d2e83612cca565b8060005b83811015612d5f578151612d468882612ce9565b9750612d5183612d01565b925050600181019050612d32565b5085935050505092915050565b60006040820190508181036000830152612d868185612d0e565b90508181036020830152612d9a8184612d0e565b90509392505050565b60008060408385031215612dba57612db9612962565b5b6000612dc885828601612afa565b9250506020612dd985828601612afa565b9150509250929050565b612dec816129f1565b8114612df757600080fd5b50565b600081359050612e0981612de3565b92915050565b60008060408385031215612e2657612e25612962565b5b6000612e3485828601612baf565b9250506020612e4585828601612dfa565b9150509250929050565b600080fd5b600080fd5b7f4e487b7100000000000000000000000000000000000000000000000000000000600052604160045260246000fd5b612e9182612a6d565b810181811067ffffffffffffffff82111715612eb057612eaf612e59565b5b80604052505050565b6000612ec3612958565b9050612ecf8282612e88565b919050565b600067ffffffffffffffff821115612eef57612eee612e59565b5b612ef882612a6d565b9050602081019050919050565b82818337600083830152505050565b6000612f27612f2284612ed4565b612eb9565b905082815260208101848484011115612f4357612f42612e54565b5b612f4e848285612f05565b509392505050565b600082601f830112612f6b57612f6a612e4f565b5b8135612f7b848260208601612f14565b91505092915050565b60008060008060808587031215612f9e57612f9d612962565b5b6000612fac87828801612baf565b9450506020612fbd87828801612baf565b9350506040612fce87828801612afa565b925050606085013567ffffffffffffffff811115612fef57612fee612967565b5b612ffb87828801612f56565b91505092959194509250565b600060208201905081810360008301526130218184612d0e565b905092915050565b600080604083850312156130405761303f612962565b5b600061304e85828601612baf565b925050602061305f85828601612baf565b9150509250929050565b7f4e487b7100000000000000000000000000000000000000000000000000000000600052602260045260246000fd5b600060028204905060018216806130b057607f821691505b6020821081036130c3576130c2613069565b5b50919050565b60006060820190506130de6000830186612b6e565b6130eb6020830185612c04565b6130f86040830184612b6e565b949350505050565b60006040820190506131156000830185612b6e565b6131226020830184612c04565b9392505050565b7f596f75206d7573742073656e642065786163746c7920302e303030303120657460008201527f6865720000000000000000000000000000000000000000000000000000000000602082015250565b6000613185602383612a32565b915061319082613129565b604082019050919050565b600060208201905081810360008301526131b481613178565b9050919050565b7f4e487b7100000000000000000000000000000000000000000000000000000000600052601160045260246000fd5b60006131f582612ad9565b91507fffffffffffffffffffffffffffffffffffffffffffffffffffffffffffffffff8203613227576132266131bb565b5b600182019050919050565b7f4e487b7100000000000000000000000000000000000000000000000000000000600052603260045260246000fd5b7f496e636f72726563742045746865722076616c75652073656e74000000000000600082015250565b6000613297601a83612a32565b91506132a282613261565b602082019050919050565b600060208201905081810360008301526132c68161328a565b9050919050565b7f596f7520617265206e6f7420746865206f776e6572206f662074686973204e4660008201527f5400000000000000000000000000000000000000000000000000000000000000602082015250565b6000613329602183612a32565b9150613334826132cd565b604082019050919050565b600060208201905081810360008301526133588161331c565b9050919050565b7f5072696365206d757374206265206265747765656e20302e3030303120616e6460008201527f2031206574686572000000000000000000000000000000000000000000000000602082015250565b60006133bb602883612a32565b91506133c68261335f565b604082019050919050565b600060208201905081810360008301526133ea816133ae565b9050919050565b600081905092915050565b600061340782612a27565b61341181856133f1565b9350613421818560208601612a43565b80840191505092915050565b600061343982856133fc565b915061344582846133fc565b91508190509392505050565b600081519050919050565b600082825260208201905092915050565b600061347882613451565b613482818561345c565b9350613492818560208601612a43565b61349b81612a6d565b840191505092915050565b60006080820190506134bb6000830187612b6e565b6134c86020830186612b6e565b6134d56040830185612c04565b81810360608301526134e7818461346d565b905095945050505050565b60008151905061350181612998565b92915050565b60006020828403121561351d5761351c612962565b5b600061352b848285016134f2565b91505092915050565b7f4e487b7100000000000000000000000000000000000000000000000000000000600052601260045260246000fd5b600061356e82612ad9565b915061357983612ad9565b9250828203905081811115613591576135906131bb565b5b92915050565b7f4e487b7100000000000000000000000000000000000000000000000000000000600052603160045260246000fdfea26469706673582212209ec86d424b961aab1e7371a4916d7e4caf12728e7ee6b078ff9f0a6a5259845164736f6c63430008160033",
	"linkReferences": {},
	"deployedLinkReferences": {}
}